{
  "contractName": "Voting_03",
  "abi": [
    {
      "anonymous": false,
      "inputs": [
        {
          "indexed": true,
          "internalType": "address",
          "name": "previousOwner",
          "type": "address"
        },
        {
          "indexed": true,
          "internalType": "address",
          "name": "newOwner",
          "type": "address"
        }
      ],
      "name": "OwnershipTransferred",
      "type": "event"
    },
    {
      "anonymous": false,
      "inputs": [
        {
          "indexed": false,
          "internalType": "uint256",
          "name": "proposalId",
          "type": "uint256"
        }
      ],
      "name": "ProposalRegistered",
      "type": "event"
    },
    {
      "anonymous": false,
      "inputs": [],
      "name": "ProposalsRegistrationEnded",
      "type": "event"
    },
    {
      "anonymous": false,
      "inputs": [],
      "name": "ProposalsRegistrationStarted",
      "type": "event"
    },
    {
      "anonymous": false,
      "inputs": [
        {
          "indexed": false,
          "internalType": "address",
          "name": "voter",
          "type": "address"
        },
        {
          "indexed": false,
          "internalType": "uint256",
          "name": "proposalId",
          "type": "uint256"
        }
      ],
      "name": "Voted",
      "type": "event"
    },
    {
      "anonymous": false,
      "inputs": [
        {
          "indexed": false,
          "internalType": "address",
          "name": "voterAddress",
          "type": "address"
        }
      ],
      "name": "VoterRegistered",
      "type": "event"
    },
    {
      "anonymous": false,
      "inputs": [],
      "name": "VotesTallied",
      "type": "event"
    },
    {
      "anonymous": false,
      "inputs": [],
      "name": "VotingSessionEnded",
      "type": "event"
    },
    {
      "anonymous": false,
      "inputs": [],
      "name": "VotingSessionStarted",
      "type": "event"
    },
    {
      "anonymous": false,
      "inputs": [
        {
          "indexed": false,
          "internalType": "address",
          "name": "_address",
          "type": "address"
        }
      ],
      "name": "Whitelisted",
      "type": "event"
    },
    {
      "anonymous": false,
      "inputs": [
        {
          "indexed": false,
          "internalType": "enum Voting_03.WorkflowStatus",
          "name": "previousStatus",
          "type": "uint8"
        },
        {
          "indexed": false,
          "internalType": "enum Voting_03.WorkflowStatus",
          "name": "newStatus",
          "type": "uint8"
        }
      ],
      "name": "WorkflowStatusChange",
      "type": "event"
    },
    {
      "inputs": [
        {
          "internalType": "uint256",
          "name": "",
          "type": "uint256"
        }
      ],
      "name": "_proposals",
      "outputs": [
        {
          "internalType": "string",
          "name": "description",
          "type": "string"
        },
        {
          "internalType": "uint256",
          "name": "voteCount",
          "type": "uint256"
        },
        {
          "internalType": "address",
          "name": "proposing",
          "type": "address"
        }
      ],
      "stateMutability": "view",
      "type": "function"
    },
    {
      "inputs": [
        {
          "internalType": "address",
          "name": "",
          "type": "address"
        }
      ],
      "name": "_voters",
      "outputs": [
        {
          "internalType": "bool",
          "name": "isRegistered",
          "type": "bool"
        },
        {
          "internalType": "bool",
          "name": "hasVoted",
          "type": "bool"
        },
        {
          "internalType": "uint256",
          "name": "votedProposalId",
          "type": "uint256"
        }
      ],
      "stateMutability": "view",
      "type": "function"
    },
    {
      "inputs": [
        {
          "internalType": "address",
          "name": "",
          "type": "address"
        }
      ],
      "name": "_whitelist",
      "outputs": [
        {
          "internalType": "bool",
          "name": "",
          "type": "bool"
        }
      ],
      "stateMutability": "view",
      "type": "function"
    },
    {
      "inputs": [
        {
          "internalType": "uint256",
          "name": "",
          "type": "uint256"
        }
      ],
      "name": "_whitelistedAddresses",
      "outputs": [
        {
          "internalType": "address",
          "name": "",
          "type": "address"
        }
      ],
      "stateMutability": "view",
      "type": "function"
    },
    {
      "inputs": [],
      "name": "_workflowStatus",
      "outputs": [
        {
          "internalType": "enum Voting_03.WorkflowStatus",
          "name": "",
          "type": "uint8"
        }
      ],
      "stateMutability": "view",
      "type": "function"
    },
    {
      "inputs": [],
      "name": "getWhiteListedAddresses",
      "outputs": [
        {
          "internalType": "address[]",
          "name": "",
          "type": "address[]"
        }
      ],
      "stateMutability": "view",
      "type": "function"
    },
    {
      "inputs": [
        {
          "internalType": "address",
          "name": "_address",
          "type": "address"
        }
      ],
      "name": "isWhitelisted",
      "outputs": [
        {
          "internalType": "bool",
          "name": "",
          "type": "bool"
        }
      ],
      "stateMutability": "view",
      "type": "function"
    },
    {
      "inputs": [],
      "name": "owner",
      "outputs": [
        {
          "internalType": "address",
          "name": "",
          "type": "address"
        }
      ],
      "stateMutability": "view",
      "type": "function"
    },
    {
      "inputs": [],
      "name": "renounceOwnership",
      "outputs": [],
      "stateMutability": "nonpayable",
      "type": "function"
    },
    {
      "inputs": [
        {
          "internalType": "address",
          "name": "newOwner",
          "type": "address"
        }
      ],
      "name": "transferOwnership",
      "outputs": [],
      "stateMutability": "nonpayable",
      "type": "function"
    },
    {
      "inputs": [],
      "name": "winningProposalId",
      "outputs": [
        {
          "internalType": "uint256",
          "name": "",
          "type": "uint256"
        }
      ],
      "stateMutability": "view",
      "type": "function"
    },
    {
      "inputs": [],
      "name": "setStateStartProposalsRegistration",
      "outputs": [],
      "stateMutability": "nonpayable",
      "type": "function"
    },
    {
      "inputs": [],
      "name": "setStateEndProposalsRegistration",
      "outputs": [],
      "stateMutability": "nonpayable",
      "type": "function"
    },
    {
      "inputs": [],
      "name": "setStateStartVotingSession",
      "outputs": [],
      "stateMutability": "nonpayable",
      "type": "function"
    },
    {
      "inputs": [],
      "name": "setStateEndVotingSession",
      "outputs": [],
      "stateMutability": "nonpayable",
      "type": "function"
    },
    {
      "inputs": [
        {
          "internalType": "address",
          "name": "_address",
          "type": "address"
        }
      ],
      "name": "whitelist",
      "outputs": [],
      "stateMutability": "nonpayable",
      "type": "function"
    },
    {
      "inputs": [],
      "name": "countVotes",
      "outputs": [
        {
          "internalType": "uint256",
          "name": "",
          "type": "uint256"
        }
      ],
      "stateMutability": "view",
      "type": "function"
    },
    {
      "inputs": [],
      "name": "countAndTallyVotes",
      "outputs": [
        {
          "internalType": "uint256",
          "name": "",
          "type": "uint256"
        }
      ],
      "stateMutability": "nonpayable",
      "type": "function"
    },
    {
      "inputs": [
        {
          "internalType": "string",
          "name": "_description",
          "type": "string"
        }
      ],
      "name": "registerProposal",
      "outputs": [],
      "stateMutability": "nonpayable",
      "type": "function"
    },
    {
      "inputs": [
        {
          "internalType": "uint256",
          "name": "_proposalId",
          "type": "uint256"
        }
      ],
      "name": "vote",
      "outputs": [],
      "stateMutability": "nonpayable",
      "type": "function"
    },
    {
      "inputs": [],
      "name": "getWinningProposal",
      "outputs": [
        {
          "internalType": "uint256",
          "name": "",
          "type": "uint256"
        }
      ],
      "stateMutability": "view",
      "type": "function"
    },
    {
      "inputs": [],
      "name": "getAllProposals",
      "outputs": [
        {
          "components": [
            {
              "internalType": "string",
              "name": "description",
              "type": "string"
            },
            {
              "internalType": "uint256",
              "name": "voteCount",
              "type": "uint256"
            },
            {
              "internalType": "address",
              "name": "proposing",
              "type": "address"
            }
          ],
          "internalType": "struct Voting_03.Proposal[]",
          "name": "",
          "type": "tuple[]"
        }
      ],
      "stateMutability": "view",
      "type": "function"
    },
    {
      "inputs": [
        {
          "internalType": "address",
          "name": "_adr",
          "type": "address"
        }
      ],
      "name": "hasVoted",
      "outputs": [
        {
          "internalType": "bool",
          "name": "",
          "type": "bool"
        },
        {
          "internalType": "uint256",
          "name": "",
          "type": "uint256"
        }
      ],
      "stateMutability": "view",
      "type": "function"
    }
  ],
  "bytecode": "0x60806040526000600660006101000a81548160ff021916908360058111156200002457fe5b02179055503480156200003657600080fd5b50600062000049620000ed60201b60201c565b9050806000806101000a81548173ffffffffffffffffffffffffffffffffffffffff021916908373ffffffffffffffffffffffffffffffffffffffff1602179055508073ffffffffffffffffffffffffffffffffffffffff16600073ffffffffffffffffffffffffffffffffffffffff167f8be0079c531659141344cd1fd0a4f28419497f9722a3daafe3b4186f6b6457e060405160405180910390a350620000f5565b600033905090565b612d1f80620001056000396000f3fe608060405234801561001057600080fd5b506004361061014d5760003560e01c80639b19251a116100c3578063cfdb63ac1161007c578063cfdb63ac1461035b578063e48c58ce1461038b578063ed5afed914610395578063f2fde38b146103b3578063f602a7a3146103cf578063f7300075146103d95761014d565b80639b19251a146102a9578063a5134620146102c5578063b1f69b6a146102e3578063b647990a14610301578063c64963c51461031f578063cceb68f51461033d5761014d565b80632f95355b116101155780632f95355b146101f95780633af32abf14610215578063715018a6146102455780638da5cb5b1461024f5780639029e1cf1461026d578063990a7a5d1461029f5761014d565b80630121b93f1461015257806309eef43e1461016e5780630a4948401461019f5780632d9c73d9146101d15780632eb24894146101ef575b600080fd5b61016c60048036038101906101679190612143565b610409565b005b610188600480360381019061018391906120d9565b6106ae565b60405161019692919061287a565b60405180910390f35b6101b960048036038101906101b49190612143565b61074d565b6040516101c8939291906128e7565b60405180910390f35b6101d961083c565b6040516101e691906127e4565b60405180910390f35b6101f76108ca565b005b610213600480360381019061020e9190612102565b610a76565b005b61022f600480360381019061022a91906120d9565b610c8d565b60405161023c9190612828565b60405180910390f35b61024d610ce3565b005b610257610e36565b60405161026491906127a0565b60405180910390f35b610287600480360381019061028291906120d9565b610e5f565b60405161029693929190612843565b60405180910390f35b6102a7610ea3565b005b6102c360048036038101906102be91906120d9565b61104f565b005b6102cd611203565b6040516102da9190612aa5565b60405180910390f35b6102eb611274565b6040516102f891906128a3565b60405180910390f35b610309611287565b6040516103169190612aa5565b60405180910390f35b610327611412565b6040516103349190612aa5565b60405180910390f35b610345611418565b6040516103529190612806565b60405180910390f35b610375600480360381019061037091906120d9565b611579565b6040516103829190612828565b60405180910390f35b610393611599565b005b61039d611745565b6040516103aa9190612aa5565b60405180910390f35b6103cd60048036038101906103c891906120d9565b6117f5565b005b6103d76119b7565b005b6103f360048036038101906103ee9190612143565b611b63565b60405161040091906127a0565b60405180910390f35b6003600581111561041657fe5b600660009054906101000a900460ff16600581111561043157fe5b14610471576040517f08c379a000000000000000000000000000000000000000000000000000000000815260040161046890612a85565b60405180910390fd5b610479611b9f565b60011515600160008373ffffffffffffffffffffffffffffffffffffffff1673ffffffffffffffffffffffffffffffffffffffff16815260200190815260200160002060009054906101000a900460ff1615151461050c576040517f08c379a000000000000000000000000000000000000000000000000000000000815260040161050390612a65565b60405180910390fd5b610514611b9f565b600560008273ffffffffffffffffffffffffffffffffffffffff1673ffffffffffffffffffffffffffffffffffffffff16815260200190815260200160002060000160019054906101000a900460ff16156105a4576040517f08c379a000000000000000000000000000000000000000000000000000000000815260040161059b906129a5565b60405180910390fd5b6105d66001600485815481106105b657fe5b906000526020600020906003020160010154611ba790919063ffffffff16565b600484815481106105e357fe5b906000526020600020906003020160010181905550600060056000610606611b9f565b73ffffffffffffffffffffffffffffffffffffffff1673ffffffffffffffffffffffffffffffffffffffff168152602001908152602001600020905060018160000160016101000a81548160ff0219169083151502179055508381600101819055507f4d99b957a2bc29a30ebd96a7be8e68fe50a3c701db28a91436490b7d53870ca4610691611b9f565b856040516106a09291906127bb565b60405180910390a150505050565b600080600560008473ffffffffffffffffffffffffffffffffffffffff1673ffffffffffffffffffffffffffffffffffffffff16815260200190815260200160002060000160019054906101000a900460ff16600560008573ffffffffffffffffffffffffffffffffffffffff1673ffffffffffffffffffffffffffffffffffffffff1681526020019081526020016000206001015491509150915091565b6004818154811061075a57fe5b9060005260206000209060030201600091509050806000018054600181600116156101000203166002900480601f0160208091040260200160405190810160405280929190818152602001828054600181600116156101000203166002900480156108065780601f106107db57610100808354040283529160200191610806565b820191906000526020600020905b8154815290600101906020018083116107e957829003601f168201915b5050505050908060010154908060020160009054906101000a900473ffffffffffffffffffffffffffffffffffffffff16905083565b606060028054806020026020016040519081016040528092919081815260200182805480156108c057602002820191906000526020600020905b8160009054906101000a900473ffffffffffffffffffffffffffffffffffffffff1673ffffffffffffffffffffffffffffffffffffffff1681526020019060010190808311610876575b5050505050905090565b6108d2611b9f565b73ffffffffffffffffffffffffffffffffffffffff1660008054906101000a900473ffffffffffffffffffffffffffffffffffffffff1673ffffffffffffffffffffffffffffffffffffffff161461095f576040517f08c379a000000000000000000000000000000000000000000000000000000000815260040161095690612a45565b60405180910390fd5b6003600581111561096c57fe5b600660009054906101000a900460ff16600581111561098757fe5b146109c7576040517f08c379a00000000000000000000000000000000000000000000000000000000081526004016109be90612a85565b60405180910390fd5b6000600660009054906101000a900460ff1690506004600660006101000a81548160ff021916908360058111156109fa57fe5b02179055507fc379d349a6301baf50fb2f98d829f4ae10b1cdb7c66f4e4d8117302df7b8cd4c60405160405180910390a17f0a97a4ee45751e2abf3e4fc8946939630b11b371ea8ae39ccdc3056e98f5cc3f81600660009054906101000a900460ff16604051610a6b9291906128be565b60405180910390a150565b60016005811115610a8357fe5b600660009054906101000a900460ff166005811115610a9e57fe5b14610ade576040517f08c379a0000000000000000000000000000000000000000000000000000000008152600401610ad5906129e5565b60405180910390fd5b610ae6611b9f565b60011515600160008373ffffffffffffffffffffffffffffffffffffffff1673ffffffffffffffffffffffffffffffffffffffff16815260200190815260200160002060009054906101000a900460ff16151514610b79576040517f08c379a0000000000000000000000000000000000000000000000000000000008152600401610b7090612a65565b60405180910390fd5b6004604051806060016040528084815260200160008152602001610b9b611b9f565b73ffffffffffffffffffffffffffffffffffffffff1681525090806001815401808255809150506001900390600052602060002090600302016000909190919091506000820151816000019080519060200190610bf9929190611fbe565b506020820151816001015560408201518160020160006101000a81548173ffffffffffffffffffffffffffffffffffffffff021916908373ffffffffffffffffffffffffffffffffffffffff16021790555050507f92e393e9b54e2f801d3ea4beb0c5e71a21cc34a5d34b77d0fb8a3aa1650dc18f600480549050604051610c819190612aa5565b60405180910390a15050565b6000600160008373ffffffffffffffffffffffffffffffffffffffff1673ffffffffffffffffffffffffffffffffffffffff16815260200190815260200160002060009054906101000a900460ff169050919050565b610ceb611b9f565b73ffffffffffffffffffffffffffffffffffffffff1660008054906101000a900473ffffffffffffffffffffffffffffffffffffffff1673ffffffffffffffffffffffffffffffffffffffff1614610d78576040517f08c379a0000000000000000000000000000000000000000000000000000000008152600401610d6f90612a45565b60405180910390fd5b600073ffffffffffffffffffffffffffffffffffffffff1660008054906101000a900473ffffffffffffffffffffffffffffffffffffffff1673ffffffffffffffffffffffffffffffffffffffff167f8be0079c531659141344cd1fd0a4f28419497f9722a3daafe3b4186f6b6457e060405160405180910390a360008060006101000a81548173ffffffffffffffffffffffffffffffffffffffff021916908373ffffffffffffffffffffffffffffffffffffffff160217905550565b60008060009054906101000a900473ffffffffffffffffffffffffffffffffffffffff16905090565b60056020528060005260406000206000915090508060000160009054906101000a900460ff16908060000160019054906101000a900460ff16908060010154905083565b610eab611b9f565b73ffffffffffffffffffffffffffffffffffffffff1660008054906101000a900473ffffffffffffffffffffffffffffffffffffffff1673ffffffffffffffffffffffffffffffffffffffff1614610f38576040517f08c379a0000000000000000000000000000000000000000000000000000000008152600401610f2f90612a45565b60405180910390fd5b60016005811115610f4557fe5b600660009054906101000a900460ff166005811115610f6057fe5b14610fa0576040517f08c379a0000000000000000000000000000000000000000000000000000000008152600401610f97906129e5565b60405180910390fd5b6000600660009054906101000a900460ff1690506002600660006101000a81548160ff02191690836005811115610fd357fe5b02179055507f240cb87b2e4df4c318e72bd714d45a9cad60249e883ff56b1fffd83a4595a8fa60405160405180910390a17f0a97a4ee45751e2abf3e4fc8946939630b11b371ea8ae39ccdc3056e98f5cc3f81600660009054906101000a900460ff166040516110449291906128be565b60405180910390a150565b6000600581111561105c57fe5b600660009054906101000a900460ff16600581111561107757fe5b146110b7576040517f08c379a00000000000000000000000000000000000000000000000000000000081526004016110ae90612985565b60405180910390fd5b6110c081611bfc565b60405180606001604052806001151581526020016000151581526020016000815250600560008373ffffffffffffffffffffffffffffffffffffffff1673ffffffffffffffffffffffffffffffffffffffff16815260200190815260200160002060008201518160000160006101000a81548160ff02191690831515021790555060208201518160000160016101000a81548160ff021916908315150217905550604082015181600101559050506001600560008373ffffffffffffffffffffffffffffffffffffffff1673ffffffffffffffffffffffffffffffffffffffff16815260200190815260200160002060000160006101000a81548160ff0219169083151502179055507fb6be2187d059cc2a55fe29e0e503b566e1e0f8c8780096e185429350acffd3dd816040516111f891906127a0565b60405180910390a150565b600060058081111561121157fe5b600660009054906101000a900460ff16600581111561122c57fe5b1461126c576040517f08c379a000000000000000000000000000000000000000000000000000000000815260040161126390612a05565b60405180910390fd5b600354905090565b600660009054906101000a900460ff1681565b60006004600581111561129657fe5b600660009054906101000a900460ff1660058111156112b157fe5b146112f1576040517f08c379a00000000000000000000000000000000000000000000000000000000081526004016112e890612925565b60405180910390fd5b6112f9611b9f565b73ffffffffffffffffffffffffffffffffffffffff1660008054906101000a900473ffffffffffffffffffffffffffffffffffffffff1673ffffffffffffffffffffffffffffffffffffffff1614611386576040517f08c379a000000000000000000000000000000000000000000000000000000000815260040161137d90612a45565b60405180910390fd5b60008060005b6004805490508163ffffffff161015611409578160048263ffffffff16815481106113b357fe5b90600052602060002090600302016001015411156113fc578063ffffffff16925060048163ffffffff16815481106113e757fe5b90600052602060002090600302016001015491505b808060010191505061138c565b50819250505090565b60035481565b60606004805480602002602001604051908101604052809291908181526020016000905b828210156115705783829060005260206000209060030201604051806060016040529081600082018054600181600116156101000203166002900480601f0160208091040260200160405190810160405280929190818152602001828054600181600116156101000203166002900480156114f85780601f106114cd576101008083540402835291602001916114f8565b820191906000526020600020905b8154815290600101906020018083116114db57829003601f168201915b50505050508152602001600182015481526020016002820160009054906101000a900473ffffffffffffffffffffffffffffffffffffffff1673ffffffffffffffffffffffffffffffffffffffff1673ffffffffffffffffffffffffffffffffffffffff16815250508152602001906001019061143c565b50505050905090565b60016020528060005260406000206000915054906101000a900460ff1681565b6115a1611b9f565b73ffffffffffffffffffffffffffffffffffffffff1660008054906101000a900473ffffffffffffffffffffffffffffffffffffffff1673ffffffffffffffffffffffffffffffffffffffff161461162e576040517f08c379a000000000000000000000000000000000000000000000000000000000815260040161162590612a45565b60405180910390fd5b6002600581111561163b57fe5b600660009054906101000a900460ff16600581111561165657fe5b14611696576040517f08c379a000000000000000000000000000000000000000000000000000000000815260040161168d90612a25565b60405180910390fd5b6000600660009054906101000a900460ff1690506003600660006101000a81548160ff021916908360058111156116c957fe5b02179055507f1b8e19a458c1bcd88553332c518cc5c4e2d5793e712ee766d4f1c14f672ef1f560405160405180910390a17f0a97a4ee45751e2abf3e4fc8946939630b11b371ea8ae39ccdc3056e98f5cc3f81600660009054906101000a900460ff1660405161173a9291906128be565b60405180910390a150565b600061174f611b9f565b73ffffffffffffffffffffffffffffffffffffffff1660008054906101000a900473ffffffffffffffffffffffffffffffffffffffff1673ffffffffffffffffffffffffffffffffffffffff16146117dc576040517f08c379a00000000000000000000000000000000000000000000000000000000081526004016117d390612a45565b60405180910390fd5b6117e4611287565b6003819055506117f2611e12565b90565b6117fd611b9f565b73ffffffffffffffffffffffffffffffffffffffff1660008054906101000a900473ffffffffffffffffffffffffffffffffffffffff1673ffffffffffffffffffffffffffffffffffffffff161461188a576040517f08c379a000000000000000000000000000000000000000000000000000000000815260040161188190612a45565b60405180910390fd5b600073ffffffffffffffffffffffffffffffffffffffff168173ffffffffffffffffffffffffffffffffffffffff1614156118fa576040517f08c379a00000000000000000000000000000000000000000000000000000000081526004016118f190612945565b60405180910390fd5b8073ffffffffffffffffffffffffffffffffffffffff1660008054906101000a900473ffffffffffffffffffffffffffffffffffffffff1673ffffffffffffffffffffffffffffffffffffffff167f8be0079c531659141344cd1fd0a4f28419497f9722a3daafe3b4186f6b6457e060405160405180910390a3806000806101000a81548173ffffffffffffffffffffffffffffffffffffffff021916908373ffffffffffffffffffffffffffffffffffffffff16021790555050565b6119bf611b9f565b73ffffffffffffffffffffffffffffffffffffffff1660008054906101000a900473ffffffffffffffffffffffffffffffffffffffff1673ffffffffffffffffffffffffffffffffffffffff1614611a4c576040517f08c379a0000000000000000000000000000000000000000000000000000000008152600401611a4390612a45565b60405180910390fd5b60006005811115611a5957fe5b600660009054906101000a900460ff166005811115611a7457fe5b14611ab4576040517f08c379a0000000000000000000000000000000000000000000000000000000008152600401611aab90612985565b60405180910390fd5b6000600660009054906101000a900460ff1690506001600660006101000a81548160ff02191690836005811115611ae757fe5b02179055507f344c25562921d075a298d34b6dd1fd00d36ff293974539dfd4a8c625d9f0064c60405160405180910390a17f0a97a4ee45751e2abf3e4fc8946939630b11b371ea8ae39ccdc3056e98f5cc3f81600660009054906101000a900460ff16604051611b589291906128be565b60405180910390a150565b60028181548110611b7057fe5b906000526020600020016000915054906101000a900473ffffffffffffffffffffffffffffffffffffffff1681565b600033905090565b600080828401905083811015611bf2576040517f08c379a0000000000000000000000000000000000000000000000000000000008152600401611be990612965565b60405180910390fd5b8091505092915050565b611c04611b9f565b73ffffffffffffffffffffffffffffffffffffffff1660008054906101000a900473ffffffffffffffffffffffffffffffffffffffff1673ffffffffffffffffffffffffffffffffffffffff1614611c91576040517f08c379a0000000000000000000000000000000000000000000000000000000008152600401611c8890612a45565b60405180910390fd5b600160008273ffffffffffffffffffffffffffffffffffffffff1673ffffffffffffffffffffffffffffffffffffffff16815260200190815260200160002060009054906101000a900460ff1615611d1e576040517f08c379a0000000000000000000000000000000000000000000000000000000008152600401611d15906129c5565b60405180910390fd5b60018060008373ffffffffffffffffffffffffffffffffffffffff1673ffffffffffffffffffffffffffffffffffffffff16815260200190815260200160002060006101000a81548160ff0219169083151502179055506002819080600181540180825580915050600190039060005260206000200160009091909190916101000a81548173ffffffffffffffffffffffffffffffffffffffff021916908373ffffffffffffffffffffffffffffffffffffffff1602179055507faab7954e9d246b167ef88aeddad35209ca2489d95a8aeb59e288d9b19fae5a5481604051611e0791906127a0565b60405180910390a150565b611e1a611b9f565b73ffffffffffffffffffffffffffffffffffffffff1660008054906101000a900473ffffffffffffffffffffffffffffffffffffffff1673ffffffffffffffffffffffffffffffffffffffff1614611ea7576040517f08c379a0000000000000000000000000000000000000000000000000000000008152600401611e9e90612a45565b60405180910390fd5b60046005811115611eb457fe5b600660009054906101000a900460ff166005811115611ecf57fe5b14611f0f576040517f08c379a0000000000000000000000000000000000000000000000000000000008152600401611f0690612925565b60405180910390fd5b6000600660009054906101000a900460ff1690506005600660006101000a81548160ff02191690836005811115611f4257fe5b02179055507f0e5e95ff8725ab3e7a4b6b59998a4c344c2aa8d1485f5e60cb7f337768e6134760405160405180910390a17f0a97a4ee45751e2abf3e4fc8946939630b11b371ea8ae39ccdc3056e98f5cc3f81600660009054906101000a900460ff16604051611fb39291906128be565b60405180910390a150565b828054600181600116156101000203166002900490600052602060002090601f016020900481019282601f10611fff57805160ff191683800117855561202d565b8280016001018555821561202d579182015b8281111561202c578251825591602001919060010190612011565b5b50905061203a919061203e565b5090565b5b8082111561205757600081600090555060010161203f565b5090565b60008135905061206a81612cbb565b92915050565b600082601f83011261208157600080fd5b813561209461208f82612aed565b612ac0565b915080825260208301602083018583830111156120b057600080fd5b6120bb838284612c5b565b50505092915050565b6000813590506120d381612cd2565b92915050565b6000602082840312156120eb57600080fd5b60006120f98482850161205b565b91505092915050565b60006020828403121561211457600080fd5b600082013567ffffffffffffffff81111561212e57600080fd5b61213a84828501612070565b91505092915050565b60006020828403121561215557600080fd5b6000612163848285016120c4565b91505092915050565b600061217883836121a7565b60208301905092915050565b60006121908383612732565b905092915050565b6121a181612c13565b82525050565b6121b081612bb8565b82525050565b6121bf81612bb8565b82525050565b60006121d082612b39565b6121da8185612b74565b93506121e583612b19565b8060005b838110156122165781516121fd888261216c565b975061220883612b5a565b9250506001810190506121e9565b5085935050505092915050565b600061222e82612b44565b6122388185612b85565b93508360208202850161224a85612b29565b8060005b8581101561228657848403895281516122678582612184565b945061227283612b67565b925060208a0199505060018101905061224e565b50829750879550505050505092915050565b6122a181612bca565b82525050565b6122b081612c25565b82525050565b60006122c182612b4f565b6122cb8185612b96565b93506122db818560208601612c6a565b6122e481612c9d565b840191505092915050565b60006122fa82612b4f565b6123048185612ba7565b9350612314818560208601612c6a565b61231d81612c9d565b840191505092915050565b6000612335602283612ba7565b91507f4e6f7420696e2027566f74696e6753657373696f6e456e64656427207374617460008301527f652e0000000000000000000000000000000000000000000000000000000000006020830152604082019050919050565b600061239b602683612ba7565b91507f4f776e61626c653a206e6577206f776e657220697320746865207a65726f206160008301527f64647265737300000000000000000000000000000000000000000000000000006020830152604082019050919050565b6000612401601b83612ba7565b91507f536166654d6174683a206164646974696f6e206f766572666c6f7700000000006000830152602082019050919050565b6000612441602183612ba7565b91507f4e6f7420696e20275265676973746572696e67566f746572732720737461746560008301527f2e000000000000000000000000000000000000000000000000000000000000006020830152604082019050919050565b60006124a7600e83612ba7565b91507f416c726561647920766f7465642e0000000000000000000000000000000000006000830152602082019050919050565b60006124e7602583612ba7565b91507f54686973206164647265737320697320616c72656164792077686974656c697360008301527f74656420210000000000000000000000000000000000000000000000000000006020830152604082019050919050565b600061254d602c83612ba7565b91507f4e6f7420696e202750726f706f73616c73526567697374726174696f6e53746160008301527f72746564272073746174652e00000000000000000000000000000000000000006020830152604082019050919050565b60006125b3601c83612ba7565b91507f4e6f7420696e2027566f74657354616c6c696564272073746174652e000000006000830152602082019050919050565b60006125f3602a83612ba7565b91507f4e6f7420696e202750726f706f73616c73526567697374726174696f6e456e6460008301527f6564272073746174652e000000000000000000000000000000000000000000006020830152604082019050919050565b6000612659602083612ba7565b91507f4f776e61626c653a2063616c6c6572206973206e6f7420746865206f776e65726000830152602082019050919050565b6000612699601083612ba7565b91507f4e6f742077686974656c69737465642e000000000000000000000000000000006000830152602082019050919050565b60006126d9602483612ba7565b91507f4e6f7420696e2027566f74696e6753657373696f6e537461727465642720737460008301527f6174652e000000000000000000000000000000000000000000000000000000006020830152604082019050919050565b6000606083016000830151848203600086015261274f82826122b6565b91505060208301516127646020860182612782565b50604083015161277760408601826121a7565b508091505092915050565b61278b81612c09565b82525050565b61279a81612c09565b82525050565b60006020820190506127b560008301846121b6565b92915050565b60006040820190506127d06000830185612198565b6127dd6020830184612791565b9392505050565b600060208201905081810360008301526127fe81846121c5565b905092915050565b600060208201905081810360008301526128208184612223565b905092915050565b600060208201905061283d6000830184612298565b92915050565b60006060820190506128586000830186612298565b6128656020830185612298565b6128726040830184612791565b949350505050565b600060408201905061288f6000830185612298565b61289c6020830184612791565b9392505050565b60006020820190506128b860008301846122a7565b92915050565b60006040820190506128d360008301856122a7565b6128e060208301846122a7565b9392505050565b6000606082019050818103600083015261290181866122ef565b90506129106020830185612791565b61291d60408301846121b6565b949350505050565b6000602082019050818103600083015261293e81612328565b9050919050565b6000602082019050818103600083015261295e8161238e565b9050919050565b6000602082019050818103600083015261297e816123f4565b9050919050565b6000602082019050818103600083015261299e81612434565b9050919050565b600060208201905081810360008301526129be8161249a565b9050919050565b600060208201905081810360008301526129de816124da565b9050919050565b600060208201905081810360008301526129fe81612540565b9050919050565b60006020820190508181036000830152612a1e816125a6565b9050919050565b60006020820190508181036000830152612a3e816125e6565b9050919050565b60006020820190508181036000830152612a5e8161264c565b9050919050565b60006020820190508181036000830152612a7e8161268c565b9050919050565b60006020820190508181036000830152612a9e816126cc565b9050919050565b6000602082019050612aba6000830184612791565b92915050565b6000604051905081810181811067ffffffffffffffff82111715612ae357600080fd5b8060405250919050565b600067ffffffffffffffff821115612b0457600080fd5b601f19601f8301169050602081019050919050565b6000819050602082019050919050565b6000819050602082019050919050565b600081519050919050565b600081519050919050565b600081519050919050565b6000602082019050919050565b6000602082019050919050565b600082825260208201905092915050565b600082825260208201905092915050565b600082825260208201905092915050565b600082825260208201905092915050565b6000612bc382612be9565b9050919050565b60008115159050919050565b6000819050612be482612cae565b919050565b600073ffffffffffffffffffffffffffffffffffffffff82169050919050565b6000819050919050565b6000612c1e82612c37565b9050919050565b6000612c3082612bd6565b9050919050565b6000612c4282612c49565b9050919050565b6000612c5482612be9565b9050919050565b82818337600083830152505050565b60005b83811015612c88578082015181840152602081019050612c6d565b83811115612c97576000848401525b50505050565b6000601f19601f8301169050919050565b60068110612cb857fe5b50565b612cc481612bb8565b8114612ccf57600080fd5b50565b612cdb81612c09565b8114612ce657600080fd5b5056fea26469706673582212205fe35f3cde13b8648b07b07add8cf18bc2971df956205b3051aae591a27583d464736f6c634300060c0033",
  "immutableReferences": {},
  "source": "// Dfi - Systme de vote\r\n// https://ecole.alyra.fr/mod/assign/view.php?id=727\r\n\r\n// Voting_03.sol\r\n\r\n// SPDX-License-Identifier: MIT\r\npragma solidity ^0.6.11;\r\n\r\npragma experimental ABIEncoderV2;\r\n\r\n// Whitelist / OpenZeppelin Ownable\r\nimport \"./Admin_WL_03.sol\";\r\n\r\n// SafeMath\r\n// https://github.com/OpenZeppelin/openzeppelin-contracts/blob/release-v3.1.0/contracts/math/SafeMath.sol\r\n//import 'https://raw.githubusercontent.com/OpenZeppelin/openzeppelin-contracts/release-v3.1.0/contracts/math/SafeMath.sol';\r\n// import '@openzeppelin/contracts/math/SafeMath.sol';\r\nimport \"./openzeppelin-contracts/contracts/math/SafeMath.sol\";\r\n\r\n\r\ncontract Voting_03 is Admin_WL_03\r\n{\r\n\r\n    using SafeMath for uint256;\r\n\r\n    // ===================================\r\n    // Structs\r\n    // ===================================\r\n    struct Voter\r\n     {\r\n        bool isRegistered;\r\n        bool hasVoted;\r\n        uint256 votedProposalId;\r\n     }\r\n\r\n    struct Proposal\r\n     {\r\n        string description;\r\n        uint voteCount;\r\n        address proposing; // adresse du proposant\r\n     }\r\n\r\n    // ===================================\r\n    // Enums\r\n    // ===================================\r\n\r\n    // Voting workflow steps\r\n    enum WorkflowStatus\r\n     {\r\n        RegisteringVoters,\r\n        ProposalsRegistrationStarted,\r\n        ProposalsRegistrationEnded,\r\n        VotingSessionStarted,\r\n        VotingSessionEnded,\r\n        VotesTallied\r\n     }\r\n\r\n    // ===================================\r\n    // Events\r\n    // ===================================\r\n    event VoterRegistered(address voterAddress);\r\n    event ProposalsRegistrationStarted();\r\n    event ProposalsRegistrationEnded();\r\n    event ProposalRegistered(uint proposalId);\r\n    event VotingSessionStarted();\r\n    event VotingSessionEnded();\r\n    event Voted (address voter, uint proposalId);\r\n    event VotesTallied();\r\n    event WorkflowStatusChange(WorkflowStatus previousStatus, WorkflowStatus newStatus);\r\n    \r\n    // ===================================\r\n    // Persistent data / state variables\r\n    // ===================================\r\n    \r\n    //\r\n    uint256 public winningProposalId;\r\n\r\n    Proposal[] public _proposals;\r\n\r\n    mapping (address => Voter) public _voters;\r\n\r\n    // Worflow state\r\n    // init\r\n    WorkflowStatus public _workflowStatus = WorkflowStatus.RegisteringVoters;\r\n\r\n    // ***************************************\r\n    // Modifiers\r\n    // ***************************************\r\n\r\n\r\n    // State checks\r\n\r\n     /**\r\n     * @dev Throws if called outside WorkflowStatus.RegisteringVoters state.\r\n     */\r\n    modifier registeringVoters()\r\n     {\r\n        require( _workflowStatus == WorkflowStatus.RegisteringVoters, \"Not in 'RegisteringVoters' state.\");\r\n        _;\r\n     } // modifier registeringVoters\r\n\r\n     /**\r\n     * @dev Throws if called outside WorkflowStatus.ProposalsRegistrationStarted state.\r\n     */\r\n    modifier proposalsRegistrationStarted()\r\n     {\r\n        require( _workflowStatus == WorkflowStatus.ProposalsRegistrationStarted, \"Not in 'ProposalsRegistrationStarted' state.\");\r\n        _;\r\n     } // modifier proposalsRegistrationStarted\r\n\r\n     /**\r\n     * @dev Throws if called outside WorkflowStatus.ProposalsRegistrationEnded state.\r\n     */\r\n    modifier proposalsRegistrationEnded()\r\n     {\r\n        require( _workflowStatus == WorkflowStatus.ProposalsRegistrationEnded, \"Not in 'ProposalsRegistrationEnded' state.\");\r\n        _;\r\n     } // modifier proposalsRegistrationEnded\r\n\r\n     /**\r\n     * @dev Throws if called outside WorkflowStatus.VotingSessionStarted state.\r\n     */\r\n    modifier votingSessionStarted()\r\n     {\r\n        require( _workflowStatus == WorkflowStatus.VotingSessionStarted, \"Not in 'VotingSessionStarted' state.\");\r\n        _;\r\n     } // modifier votingSessionStarted\r\n\r\n     /**\r\n     * @dev Throws if called outside WorkflowStatus.VotingSessionEnded state.\r\n     */\r\n    modifier votingSessionEnded()\r\n     {\r\n        require( _workflowStatus == WorkflowStatus.VotingSessionEnded, \"Not in 'VotingSessionEnded' state.\");\r\n        _;\r\n     } // modifier votingSessionEnded\r\n\r\n     /**\r\n     * @dev Throws if called outside WorkflowStatus.VotesTallied state.\r\n     */\r\n    modifier votesTallied()\r\n     {\r\n        require( _workflowStatus == WorkflowStatus.VotesTallied, \"Not in 'VotesTallied' state.\");\r\n        _;\r\n     } // modifier votesTallied\r\n\r\n    // Users checks\r\n    modifier hasNotAlreadyVoted(address _address)\r\n     {\r\n         require( ! _voters[_address].hasVoted, \"Already voted.\" );\r\n         _;\r\n     } // modifier hasNotAlreadyVoted\r\n\r\n\r\n    // Notify events\r\n    /*\r\n    modifier workflowStatusChanged(WorkflowStatus previousStatus, WorkflowStatus newStatus)\r\n     {\r\n        _;\r\n        emit WorkflowStatusChange( previousStatus,  newStatus );\r\n     }\r\n    */\r\n    modifier notifyEventWorkflowStatusChanged\r\n     {\r\n        WorkflowStatus workflowStatusBefore = _workflowStatus;\r\n        _;\r\n        emit WorkflowStatusChange( workflowStatusBefore,  _workflowStatus );\r\n     }\r\n\r\n    // ***************************************\r\n    // Functions\r\n    // ***************************************\r\n\r\n    // Admin only : onlyOwner modifier\r\n\r\n    // States transitions \r\n\r\n    // RegisteringVoters -> ProposalsRegistrationStarted\r\n    function setStateStartProposalsRegistration() public onlyOwner registeringVoters notifyEventWorkflowStatusChanged // workflowStatusChanged(_workflowStatus, WorkflowStatus.ProposalsRegistrationStarted)\r\n     {\r\n        _workflowStatus =  WorkflowStatus.ProposalsRegistrationStarted;\r\n        emit ProposalsRegistrationStarted();\r\n     }\r\n\r\n    // ProposalsRegistrationStarted -> ProposalsRegistrationEnded\r\n    function setStateEndProposalsRegistration() public onlyOwner proposalsRegistrationStarted notifyEventWorkflowStatusChanged // workflowStatusChanged(_workflowStatus, WorkflowStatus.ProposalsRegistrationEnded)\r\n     {\r\n        _workflowStatus = WorkflowStatus.ProposalsRegistrationEnded;\r\n        emit ProposalsRegistrationEnded();\r\n     }\r\n\r\n    // ProposalsRegistrationEnded -> VotingSessionStarted\r\n    function setStateStartVotingSession() public onlyOwner proposalsRegistrationEnded notifyEventWorkflowStatusChanged // workflowStatusChanged(_workflowStatus, WorkflowStatus.VotingSessionStarted)\r\n     {\r\n        _workflowStatus = WorkflowStatus.VotingSessionStarted;\r\n        emit VotingSessionStarted();\r\n     }\r\n\r\n    // VotingSessionStarted -> VotingSessionEnded\r\n    function setStateEndVotingSession() public onlyOwner votingSessionStarted notifyEventWorkflowStatusChanged // workflowStatusChanged(_workflowStatus, WorkflowStatus.VotingSessionEnded)\r\n     {\r\n        _workflowStatus = WorkflowStatus.VotingSessionEnded;\r\n        emit VotingSessionEnded();\r\n     }\r\n\r\n    // VotingSessionEnded -> VotesTallied\r\n    function setStateVotesTallied() internal onlyOwner votingSessionEnded notifyEventWorkflowStatusChanged // workflowStatusChanged(_workflowStatus, WorkflowStatus.VotesTallied)\r\n     {\r\n        _workflowStatus = WorkflowStatus.VotesTallied;\r\n        emit VotesTallied();\r\n     }\r\n\r\n    // Other\r\n    \r\n    // L'administrateur du vote enregistre une liste blanche d'lecteurs identifis par leur adresse Ethereum.\r\n    function whitelist(address _address) public override ( Admin_WL_03 ) registeringVoters\r\n     {\r\n        super.whitelist( _address );\r\n        _voters[ _address ] = Voter( true, false, 0 );// (bool isRegistered, bool hasVoted, uint votedProposalId)\r\n        _voters[ _address ].isRegistered = true;\r\n        emit VoterRegistered( _address );\r\n      } // function whitelist\r\n\r\n    // Compte des votes en 'view' : pas de limite de gas\r\n    function countVotes() votingSessionEnded public /* internal */ view onlyOwner returns (uint256)\r\n    {\r\n        uint256 proposalIdWithMaxCount;\r\n        uint256 proposalIdWithMaxCount_Count;\r\n        //for (uint i=0; i<1000;i++){            uint a=i;         }\r\n        for ( uint32 proposalId=0; proposalId < _proposals.length; proposalId++ )\r\n         {\r\n             \r\n             if ( _proposals[ proposalId ].voteCount > proposalIdWithMaxCount_Count )\r\n              {\r\n                proposalIdWithMaxCount = proposalId;\r\n                proposalIdWithMaxCount_Count = _proposals[ proposalId ].voteCount;\r\n              }\r\n         } // for each proposal\r\n\r\n        return proposalIdWithMaxCount;\r\n\r\n/*\r\n        for ( uint32 proposalId=0; proposalId < _proposals.length; proposalId++ )\r\n         {\r\n             \r\n             if ( _proposals[ proposalId ].voteCount = proposalIdWithMaxCount_Count )\r\n              {\r\n                  if ( proposalIdWithMaxCount != proposalId )\r\n                   {\r\n                       // Au moins deux propositions ont le mme plus grand nombre de votes\r\n                   }\r\n              }\r\n         } // for each proposal\r\n\r\n*/\r\n    }\r\n    \r\n    // Dcompte des votes\r\n    function countAndTallyVotes () public onlyOwner returns (uint256)\r\n     {\r\n        winningProposalId = countVotes();\r\n        setStateVotesTallied();\r\n     } // function tallyVotes\r\n\r\n    // ---------\r\n    // Non Admin\r\n    // ---------\r\n    \r\n    /**\r\n     * _msgSender() -> https://github.com/OpenZeppelin/openzeppelin-contracts/blob/release-v3.0.0/contracts/GSN/Context.sol\r\n     */\r\n    function registerProposal( string memory _description ) public proposalsRegistrationStarted whitelisted( _msgSender() )\r\n     {\r\n    \t// _proposals.push( Proposal( _description, 0 ) ); // string description, uint voteCount\r\n    \t_proposals.push( Proposal( _description, 0, _msgSender() ) ); // string description, uint voteCount, proposant\r\n         emit ProposalRegistered( _proposals.length );\r\n     } // function registerProposal\r\n\r\n    function vote( uint256 _proposalId ) public votingSessionStarted whitelisted( _msgSender() ) hasNotAlreadyVoted( _msgSender() )\r\n     {\r\n        _proposals[_proposalId].voteCount = _proposals[_proposalId].voteCount.add( 1 ); // SafeMath\r\n\r\n        Voter storage voter = _voters[ _msgSender() ];\r\n        voter.hasVoted = true;\r\n        voter.votedProposalId = _proposalId;\r\n        \r\n         emit Voted ( _msgSender() ,  _proposalId );\r\n     } // function vote\r\n     \r\n     function getWinningProposal() public view votesTallied returns (uint256)\r\n      {\r\n          return winningProposalId;\r\n      } // function getWinningProposal\r\n      \r\n\r\n    function getAllProposals() public view returns (Proposal[] memory)\r\n     {\r\n    \treturn _proposals;\r\n     } // function getAllProposals\r\n\r\n    function hasVoted(address _adr) public view returns (bool, uint256)\r\n     {\r\n         return (_voters[_adr].hasVoted, _voters[_adr].votedProposalId);\r\n\r\n     } // function hasVoted\r\n\r\n} // contract Voting\r\n",
  "sourcePath": "C:\\tmp\\DEV-new\\ETH\\Alyra\\React-Truffle-Vote\\contracts\\Voting_03.sol",
  "compiler": {
    "name": "solc",
    "version": "0.6.12+commit.27d51765.Emscripten.clang"
  },
  "schemaVersion": "3.4.3",
  "updatedAt": "2021-10-12T19:18:30.597Z",
  "devdoc": {
    "kind": "dev",
    "methods": {
      "owner()": {
        "details": "Returns the address of the current owner."
      },
      "renounceOwnership()": {
        "details": "Leaves the contract without owner. It will not be possible to call `onlyOwner` functions anymore. Can only be called by the current owner. NOTE: Renouncing ownership will leave the contract without an owner, thereby removing any functionality that is only available to the owner."
      },
      "transferOwnership(address)": {
        "details": "Transfers ownership of the contract to a new account (`newOwner`). Can only be called by the current owner."
      }
    },
    "version": 1
  },
  "userdoc": {
    "kind": "user",
    "methods": {
      "registerProposal(string)": {
        "notice": "_msgSender() -> https://github.com/OpenZeppelin/openzeppelin-contracts/blob/release-v3.0.0/contracts/GSN/Context.sol"
      }
    },
    "version": 1
  }
}